:020000040000FA
:1000000002004A7582B3758301740012005C7A00A5
:100010007B0F90007A780D79018015E493A3AD826F
:10002000AE838A828B83F0A3AA82AB838D828E8378
:10003000D8E9D9E775825B758301740012005C759D
:1000400082D7758301740012005C75D0007581BF82
:10005000750900750A0F759F0002000EC09FF59F7D
:10006000E473D09F22D083D082C09FE493C0E07419
:100070000193C0E0740293F59F223F065B4F666DCB
:100080007D077F6F00FF1200657101001200657A25
:100090000100120065260100120065E50100120052
:1000A00065030000250910AF08F509400C150A800A
:1000B00008F5094002150AD2AF222509C582C0E021
:1000C000E50A34FFC583C0E0E509C3958224F81032
:1000D000AF0885830A858209800885830A8582099D
:1000E000D2AFCEF0A3E520F0A37808E608F0A3DEB7
:1000F000FAEFF0A3E58124FAF8E608F0A3E608F0A9
:10010000A3E608F0A30808E608F0A3E608F0A315A4
:10011000811581D0E0FED0E0F8158115811581E8C8
:10012000C0E0EEC0E0227A007B00801808E8700191
:1001300009C3E89420E99403A2D265D03340ED0AC4
:10014000EA70010BC3EA94E8EB9403A2D265D033C2
:1001500050067800790080D90200621200867E0085
:10016000EEC3940A50F8EEF912008C1200920E8041
:10017000EF53F4F343FE0C020062C082C0837A00A6
:10018000E9FC7D0074002CF582740F3DF583E0F8E6
:10019000800BC293E8C333F8C292D2920AEAC394A6
:1001A000085009E8A2E750EAD29380E8D083D082D1
:1001B00002006274F71200BA74FE1200A4EAFEEBA9
:1001C000FF850982850A83EEF0A3EFF0AA09AB0A46
:1001D000790112009880EAC082C08312009ED08309
:0A01E000D082020062780002006283
:040000050000004AAD
:00000001FF
