:020000040000FA
:100000000200247582E27583007400120036758246
:1000100019758301740012003675820675830174A8
:100020000012003675D0007581BF750900750A0F82
:10003000759F0002000EC09FF59FE473D09F22D0F1
:1000400083D082C09FE493C0E0740193C0E0740247
:1000500093F59F2212003F14010012003F0300009D
:10006000250910AF08F509400C150A8008F509406C
:1000700002150AD2AF222509C582C0E0E50A34FF85
:10008000C583C0E0E509C3958224F810AF088583D5
:100090000A858209800885830A858209D2AFCEF05D
:1000A000A3E520F0A37808E608F0A3DEFAEFF0A3BA
:1000B000E58124FAF8E608F0A3E608F0A3E608F0E4
:1000C000A30808E608F0A3E608F0A315811581D07F
:1000D000E0FED0E0F8158115811581E8C0E0EEC0A2
:1000E000E02274F712007674FE120060EAFEEBFF65
:1000F000850982850A83EEF0A3EFF0AA09AB0A799D
:100100000112005480EAC082C08312005AD083D00A
:0B0110008202003C780002003C80FEF0
:0400000500000024D3
:00000001FF
