:020000040000FA
:030000000200CD2E
:03007B00020282FC
:100083000202AF75822975830474001200DF7A00BF
:100093007B0F9000FD781779018015E493A3AD825F
:1000A300AE838A828B83F0A3AA82AB838D828E83F5
:1000B300D8E9D9E77582C875830374001200DF7528
:1000C300824D75830474001200DF75D0007581BF03
:1000D300750900750A0F759F00020091C09FF59F77
:1000E300E473D09F22D083D082C09FE493C0E07496
:1000F3000193C0E0740293F59F223F065B4F666D48
:100103007D077F6F000C6188000720EFBE2050053C
:100113001200E8E703001200E8F003001200E8CE43
:1001230002001200E80903001200E82C0300120089
:10013300E83A03001200E88403001200E85B0400BD
:100143001200E8860000250910AF08F509400C15D8
:100153000A8008F5094002150AD2AF222509C58293
:10016300C0E0E50A34FFC583C0E0E509C3958224F6
:10017300F810AF0885830A858209800885830A857C
:100183008209D2AFCEF0A3E520F0A37808E608F009
:10019300A3DEFAEFF0A3E58124FAF8E608F0A3E67C
:1001A30008F0A3E608F0A30808E608F0A3E608F0C1
:1001B300A315811581D0E0FED0E0F81581158115D6
:1001C30081E8C0E0EEC0E022C0D02509C582C0E0CE
:1001D300E50A34FFC583C0E0E509C3958224F31023
:1001E300AF0885830A858209800885830A85820989
:1001F300D2AFC8F0A3E9F0A3EAF0A3EBF0A3790828
:10020300E709F0A3D8FAECF0A3EDF0A3EEF0A3EF27
:10021300F0A3D0E0F0A3D0E0F0A3D0E0F0A3E5207A
:10022300F0A3E5F0F0A322850A83850982E0C0E00C
:10023300A3E0F9A3E0FAA3E0FBA37808E0F608A3A0
:10024300DFFAE0FCA3E0FDA3E0FEA3E0FFA3E0C030
:10025300E0A3E0C0E0A3E0F5D0A3E0F520A3E0A392
:10026300F5F010AF0885830A858209800885830A23
:10027300858209D2AFD082D083D0E0F8D0E032C0FB
:10028300E074F21201CBE58AA2E1501612011FA21B
:1002930091400F43FE01639001790B7A0B7B0F12A0
:1002A3000137758A00C2EB7F0102022AC0E0C0D089
:1002B300C2AFE5E9A2E6500353E9BF759B0075E1C0
:1002C300EC75E1E3D2AFD0D0D0E0327AE87B0380A3
:1002D3001EE824FFF8E934FFF9C3E89401E9940028
:1002E300A2D265D03350EAEA24FFFAEB34FFFBC312
:1002F300EA9401EB9400A2D265D0334006781E79CC
:100303000080D60200E5C082C08353BEFBE59DA2F8
:10031300E650FA12011F53C6F853C6BFE59EA2E684
:1003230040FAD083D0820200E5439A10438D024302
:100333008C02D2AF0200E5C082C083C2AF90618954
:10034300E04460F09061FA7409F09061B27415F0C2
:100353009061AE7400F09061A3E0D2E6F0439A019D
:1003630090618F7451F09061727407F090617374AF
:1003730020F075E1EC75E1E3D2AFD083D0820200C7
:10038300E5C082C08375E1EC75E1E3906193E054CD
:100393002270F875E1EE5391FD78008010E8FC7D42
:1003A30000EA2CF582EB3DF583E0F5D908E8C39923
:1003B30040EB75E1E9E591A2E150FA7591FDD08337
:1003C300D0820200E512011312012512012B120142
:1003D300319061747450F09061757420F07901125A
:1003E300011980FE53F4F343FE0C0200E5C082C002
:1003F300837A00E9FC7D0074002CF582740F3DF5CF
:1004030083E0F8800BC293E8C333F8C292D2920A16
:10041300EAC394085009E8A2E750EAD29380E8D0EF
:1004230083D0820200E574F712015F74FE12014962
:10043300EAFEEBFF850982850A83EEF0A3EFF0AABB
:1004430009AB0A790112013D80EAC082C08312011F
:0D04530043D083D0820200E578000200E56E
:04000005000000CD2A
:00000001FF
