:020000040000FA
:030000000200DD1E
:1000830002028775822A75830474001200EFE490DC
:100093000F00780379018002F0A3D8FCD9FA7A0221
:1000A3007B0F90010D780C79018015E493A3AD8249
:1000B300AE838A828B83F0A3AA82AB838D828E83E5
:1000C300D8E9D9E77582C975830374001200EF7507
:1000D300824E75830474001200EF75D0007581BFE2
:1000E300750900750A0F759F00020091C09FF59F67
:1000F300E473D09F22D083D082C09FE493C0E07486
:100103000193C0E0740293F59F223F065B4F666D37
:100113007D077F6F001200F8E803001200F8F10377
:10012300001200F8AC02001200F8E702001200F817
:100133000A03001200F82303001200F86D030012F3
:1001430000F85C04001200F8860000250910AF08CF
:10015300F509400C150A8008F5094002150AD2AFCB
:10016300222509C582C0E0E50A34FFC583C0E0E566
:1001730009C3958224F810AF0885830A8582098014
:100183000885830A858209D2AFCEF0A3E520F0A3C8
:100193007808E608F0A3DEFAEFF0A3E58124FAF885
:1001A300E608F0A3E608F0A3E608F0A30808E608CB
:1001B300F0A3E608F0A315811581D0E0FED0E0F8A6
:1001C300158115811581E8C0E0EEC0E022C0D0257D
:1001D30009C582C0E0E50A34FFC583C0E0E509C371
:1001E300958224F310AF0885830A858209800885E8
:1001F300830A858209D2AFC8F0A3E9F0A3EAF0A38A
:10020300EBF0A37908E709F0A3D8FAECF0A3EDF03B
:10021300A3EEF0A3EFF0A3D0E0F0A3D0E0F0A3D0DF
:10022300E0F0A3E520F0A3E5F0F0A322850A83859F
:100233000982E0C0E0A3E0F9A3E0FAA3E0FBA3781E
:1002430008E0F608A3DFFAE0FCA3E0FDA3E0FEA3C9
:10025300E0FFA3E0C0E0A3E0C0E0A3E0F5D0A3E0AB
:10026300F520A3E0A3F5F010AF0885830A85820982
:10027300800885830A858209D2AFD082D083D0E0FB
:10028300F8D0E032C0E074F21201D0C2AFE5E9A2C7
:10029300E6500612013C53E9BF759B0075E1EC750E
:1002A300E1E3D2AF7F0102022F7AE87B03801EE8ED
:1002B30024FFF8E934FFF9C3E89401E99400A2D2DA
:1002C30065D03350EAEA24FFFAEB34FFFBC3EA9428
:1002D30001EB9400A2D265D0334006781E790080EA
:1002E300D60200F5C082C08353BEFBE59DA2E65053
:1002F300FA12012453C6F853C6BFE59EA2E640FA9C
:10030300D083D0820200F553F1FE43F30C4386C041
:1003130075C40075C50B75C2D8D2AAD2AF0200F559
:10032300C082C083C2AF906189E04460F09061FAFB
:100333007409F09061B27415F09061AE7400F0909E
:1003430061A3E0D2E6F0439A0190618F7451F0907B
:1003530061727407F09061737420F075E1EC75E1DC
:10036300E3D2AFD083D0820200F5C082C083900F66
:10037300017400F0900F01E0900F00F09061A3E092
:10038300C2E6F0539AFED2AFE5D9900F00F0801D7C
:10039300E5D9900F01F0900F00E064037008900F0F
:1003A30001E0F912011E900F00E024FFF0900F000E
:1003B300E070DDC2AF9061A3E0D2E6F0439A01D0D2
:1003C30083D0820200F512011812012A120136129B
:1003D300013090617474EFF090617574BEF079022E
:1003E30012011E80FE53F4F343FE0C0200F5C0829B
:1003F300C0837A00E9FC7D0074022CF582740F3D02
:10040300F583E0F8800BC293E8C333F8C292D2922B
:100413000AEAC394085009E8A2E750EAD29380E8B5
:10042300D083D0820200F574F712016474FE1201C6
:100433004EEAFEEBFF850982850A83EEF0A3EFF017
:10044300AA09AB0A790112014280EAC082C0831271
:0E0453000148D083D0820200F578000200F547
:04000005000000DD1A
:00000001FF
