:020000040000FA
:030000000200DD1E
:1000830002028D75827775830474001200EFE49089
:100093000F00780479018002F0A3D8FCD9FA7A031F
:1000A3007B0F90010D780C79018015E493A3AD8249
:1000B300AE838A828B83F0A3AA82AB838D828E83E5
:1000C300D8E9D9E775821675830474001200EF75B9
:1000D300829B75830474001200EF75D0007581BF95
:1000E300750900750A0F759F00020091C09FF59F67
:1000F300E473D09F22D083D082C09FE493C0E07486
:100103000193C0E0740293F59F223F065B4F666D37
:100113007D077F6F001200F83504001200F83E04DB
:10012300001200F8B202001200F8ED02001200F80B
:100133001003001200F82903001200F83403001220
:1001430000F87E03001200F8A904001200F88600EC
:1001530000250910AF08F509400C150A8008F509B8
:100163004002150AD2AF222509C582C0E0E50A3450
:10017300FFC583C0E0E509C3958224F810AF088565
:10018300830A858209800885830A858209D2AFCED6
:10019300F0A3E520F0A37808E608F0A3DEFAEFF079
:1001A300A3E58124FAF8E608F0A3E608F0A3E6083D
:1001B300F0A30808E608F0A3E608F0A3158115816B
:1001C300D0E0FED0E0F8158115811581E8C0E0EE9E
:1001D300C0E022C0D02509C582C0E0E50A34FFC5CE
:1001E30083C0E0E509C3958224F310AF0885830A31
:1001F300858209800885830A858209D2AFC8F0A366
:10020300E9F0A3EAF0A3EBF0A37908E709F0A3D898
:10021300FAECF0A3EDF0A3EEF0A3EFF0A3D0E0F03F
:10022300A3D0E0F0A3D0E0F0A3E520F0A3E5F0F045
:10023300A322850A83850982E0C0E0A3E0F9A3E055
:10024300FAA3E0FBA37808E0F608A3DFFAE0FCA337
:10025300E0FDA3E0FEA3E0FFA3E0C0E0A3E0C0E075
:10026300A3E0F5D0A3E0F520A3E0A3F5F010AF08D9
:1002730085830A858209800885830A858209D2AF2E
:10028300D082D083D0E0F8D0E032C0E074F2120123
:10029300D6C2AFE5E9A2E6500612014253E9BF75A3
:1002A3009B0075E1EC75E1E3D2AF7F010202357A81
:1002B300E87B03801EE824FFF8E934FFF9C3E894E0
:1002C30001E99400A2D265D03350EAEA24FFFAEBA5
:1002D30034FFFBC3EA9401EB9400A2D265D0334010
:1002E30006781E790080D60200F5C082C08353BE13
:1002F300FBE59DA2E650FA12012453C6F853C6BF8C
:10030300E59EA2E640FAD083D0820200F553F1FEC7
:1003130043F30C4386C075C40075C50B75C2D8D2B0
:10032300AAD2AF0200F589C1A2E950FCC2E90200DA
:10033300F5C082C083C2AF906189E04460F09061F0
:10034300FA7409F09061B27415F09061AE7400F024
:100353009061A3E0D2E6F0439A0190618F7451F06B
:100363009061727407F09061737420F075E1EC751D
:10037300E1E3D2AFD083D0820200F5C082C0839084
:100383000F017400F0900F01E0900F00F09061A353
:10039300E0C2E6F0539AFED2AFE5D9900F00F09099
:1003A3000F00E0900F02F08051E5D9900F01F0901B
:1003B3000F00E064037008900F01E0F912011E9032
:1003C3000F00E0C39403402B900F02E0F8790090F4
:1003D3000F00E0FA7B00E8C39AF8E99BF9C3E894BD
:1003E30009E99400A2D265D0334008900F01E0F9E7
:1003F300120136900F00E024FFF0900F00E070A987
:10040300C2AF9061A3E0D2E6F0439A01D083D082D9
:100413000200F512011812012A12013C1201309058
:10042300617474EFF090617574BEF0790212011E6D
:1004330080FE53F4F343FE0C0200F5C082C0837ABE
:1004430000E9FC7D0074032CF582740F3DF583E015
:10045300F8800BC293E8C333F8C292D2920AEAC37C
:1004630094085009E8A2E750EAD29380E8D083D0F9
:10047300820200F574F712016A74FE120154EAFE57
:10048300EBFF850982850A83EEF0A3EFF0AA09AB9F
:100493000A790112014880EAC082C08312014ED05A
:0B04A30083D0820200F578000200F513
:04000005000000DD1A
:00000001FF
