:020000040000FA
:03000000020047B4
:1000130002011775828E7583017400120059E490F2
:100023000F00780279018002F0A3D8FCD9FA758217
:100033008675830174001200597582B27583017449
:100043000012005975D0007581BF750900750A0F3C
:10005300759F00020021C09FF59FE473D09F22D0BB
:1000630083D082C09FE493C0E0740193C0E0740224
:1000730093F59F221200623C01001200624A0100C4
:10008300120062700100120062C0010012006216C9
:100093000000250910AF08F509400C150A8008F582
:1000A300094002150AD2AF222509C582C0E0E50A3C
:1000B30034FFC583C0E0E509C3958224F810AF0877
:1000C30085830A858209800885830A858209D2AFE0
:1000D300CEF0A3E520F0A37808E608F0A3DEFAEF5C
:1000E300F0A3E58124FAF8E608F0A3E608F0A3E616
:1000F30008F0A30808E608F0A3E608F0A3158115A5
:1001030081D0E0FED0E0F8158115811581E8C0E0CB
:10011300EEC0E022C0E0C0D0C082C083C28BE5C184
:10012300900F00F0900F00E0F5C1A2E950FCC2E986
:10013300D083D082D0D0D0E032783FE8F974FF2961
:10014300F8E970F702005FC082C08353BEFBE59DF0
:10015300A2E650FA12007753C6F853C6BFE59EA233
:10016300E640FA43BE40D083D08202005F53F1FEE3
:1001730043F30C4386C075C50875C23BD2AFD2AA00
:1001830002005F12007D12008380FE74F71200AB41
:1001930074FE120095EAFEEBFF850982850A83EE61
:1001A300F0A3EFF0AA09AB0A790112008980EAC033
:1001B30082C08312008FD083D08202005F78000256
:0201C300005FDB
:0400000500000047B0
:00000001FF
