:020000040000FA
:030000000200BB40
:10005B0002028000000080FB1200EBB900030200DB
:10006B00A5E4900F00780579018002F0A3D8FCD9A4
:10007B00FA900F04AA82AB839000EE780C79018082
:10008B0015E493A3AC82AD838A828B83F0A3AA82FF
:10009B00AB838C828D83D8E9D9E775825E75830338
:1000AB0074001200CD75825E75830074001200CD52
:1000BB0075D0007581BF75100075110F759F00020B
:1000CB000063C09FF59FE473D09F22D083D082C082
:1000DB009FE493C0E0740193C0E0740293F59F22F8
:1000EB007901223F065B4F666D7D077F6F00120023
:1000FB00D66F03001200D67803001200D6F302006D
:10010B001200D62E03001200D63B03002510C58229
:10011B00C0E0E51134FFC583C0E0E510C395822430
:10012B00F810AF08858311858210800885831185AF
:10013B008210D2AFCEF0A3E520F0A37808E608F04A
:10014B00A3DEFAEFF0A3E58124FAF8E608F0A3E6C4
:10015B0008F0A3E608F0A30808E608F0A3E608F009
:10016B00A315811581D0E0FED0E0F815811581151E
:10017B0081E8C0E0EEC0E022851183851082E0A308
:10018B00FEE0A3F5207808E0A3F608DFFAE0A3FF72
:10019B00E0A3C0E0E0A3C0E0E0A3C0E0E0A3C0E0C8
:1001AB00E0A3C0E010AF088582108583118008851D
:1001BB008210858311D2AFD083D0820200D3C0D0FE
:1001CB002510C582C0E0E51134FFC583C0E0E51002
:1001DB00C3958224F310AF088583118582108008A4
:1001EB00858311858210D2AFC8F0A3E9F0A3EAF0A2
:1001FB00A3EBF0A37908E709F0A3D8FAECF0A3ED91
:10020B00F0A3EEF0A3EFF0A3D0E0F0A3D0E0F0A3C7
:10021B00D0E0F0A3E520F0A3E5F0F0A32285118355
:10022B00851082E0C0E0A3E0F9A3E0FAA3E0FBA312
:10023B007808E0F608A3DFFAE0FCA3E0FDA3E0FEFC
:10024B00A3E0FFA3E0C0E0A3E0C0E0A3E0F5D0A3F0
:10025B00E0F520A3E0A3F5F010AF088583118582AC
:10026B00108008858311858210D2AFD082D083D0C5
:10027B00E0F8D0E032C0E074F21201C9900F00E058
:10028B002401F8A3E03400F9900F00E8F0A3E9F0A3
:10029B007442687003740F697049900F007400F01A
:1002AB00A37400F0900F02E02401F0A3E03400F0FF
:1002BB00900F02C3E0940BA3E09400A2D265D0335D
:1002CB00400A900F027400F0A37400F0D2F0A290D9
:1002DB0030F001B39290900F02E0F8A3E0F9E8F947
:1002EB001200FF7F010202287AE87B03801EE824BC
:1002FB00FFF8E934FFF9C3E89401E99400A2D26551
:10030B00D03350EAEA24FFFAEB34FFFBC3EA940143
:10031B00EB9400A2D265D0334006781E790080D6CC
:10032B000200D375CBA8D2BBD2AF43CB100200D304
:10033B00C082C08353BEFBE59DA2E650FA120105B5
:10034B0053C6F853C6BFE59EA2E640FAD083D082CF
:10035B000200D312011112010B1200F953F4FE43E8
:10036B00FE0180FE53F4F343FE0C0200D374F6122D
:10037B0001177800890875090074042508F5827443
:10038B000F3509F583E0FA800BC293EAC333FAC247
:10039B0092D29208E8C394085009EAA2E750EAD235
:0803AB009380E87F0202018348
:04000005000000BB3C
:00000001FF
